:1000000000800120E9010000150200001502000037
:100010001502000015020000150200001502000084
:100020001502000015020000150200001502000074
:100030001502000014020000150200001502000065
:100040001502000015020000150200001502000054
:100050001502000015020000150200001502000044
:100060001502000015020000150200001502000034
:100070001502000015020000150200001502000024
:100080001502000015020000150200001502000014
:10009000150200002D1300001502000015020000DB
:1000A00015020000150200001502000015020000F4
:1000B00015020000150200001502000015020000E4
:1000C00015020000150200001502000015020000D4
:1000D00015020000150200001502000015020000C4
:1000E00015020000150200001502000015020000B4
:1000F00015020000150200001502000015020000A4
:10010000150200001502000019150000150200007C
:100110001502000015020000150200001502000083
:100120001502000015020000150200001502000073
:100130001502000010B5054C237833B9044B13B1F8
:10014000044800E000BF0123237010BD78000020A8
:1001500000000000681F000008B5034B1BB10349F5
:10016000034800E000BF08BD000000007C00002044
:10017000681F0000154B002B08BF134B9D46A3F5CD
:10018000803A00218B460F461348144A121A01F098
:1001900089FE0F4B002B00D098470E4B002B00D050
:1001A00098470020002104000D000D48002802D0CF
:1001B0000C4800E000BF01F051FE2000290001F0D2
:1001C000D3F801F037FE00BF0000080000800120D6
:1001D000000000000000000078000020DC2000206B
:1001E0000000000000000000064880470649074A5A
:1001F000074B9A42BEBF51F8040B42F8040BF8E7D4
:10020000FFF7B8FF19020000741F00000000002073
:1002100078000020FEE700BF044B054A9A60D3F83F
:10022000882042F47002C3F88820704700ED00E097
:1002300000000000094B1B6F03F00703022B09D0DD
:10024000032B04D0012B00D0FEE705487047054B77
:1002500018687047044B1868704700BF0080004062
:10026000002D310108000020040000200D4B1B6F01
:1002700003F00703022B12D0032B0DD0012B00D06B
:10028000FEE7094B0749094A086FC0F30130013006
:10029000B3FBF0F010607047054B1B68F2E7054BAD
:1002A0001B68EFE700800040002D310100000020B6
:1002B00008000020040000200048704700B4C40477
:1002C000014B1868704700BF08000020014B1868F8
:1002D000704700BF04000020014B1860704700BF4A
:1002E000040000200020704700487047002D3101B5
:1002F000174B9868C0F304400C2823D8DFE800F0BF
:10030000092222222222181A1C221E20070011482C
:1003100070470F4B9B6803F04073B3F1807F13D09D
:10032000B3F1007F12D00C4A002B08BF1046704773
:100330000A4870470A4870470A4870470A48704799
:100340000A487047002070470948704709487047BD
:100350000040014A005A620200093D00405DC600AB
:100360000024F400C0EA210180BA8C010048E801B1
:1003700080841E0040420F004FF40040704700BFD1
:100380004FF47A70704700BF014B1868704700BF88
:100390000C0000202F4B984246D023D92E4B984278
:1003A00045D00FD92D4B984232D003F5740303F595
:1003B0001053984234D02A4B984220D1294BD3F87D
:1003C00090007047284B98421ED0284B984223D06B
:1003D000A3F53703A3F5D853984210D1214BD3F896
:1003E00080007047224B98422BD024D9214B984251
:1003F00007D0214B98422AD0204B984224D000208D
:100400007047184B186F7047164BD3F8840070472D
:10041000144BD3F894007047124BD3F88800704700
:10042000104BD3F8980070470E4B986F70470D4BE8
:10043000D3F88C007047124B984202D0114B98426F
:10044000DDD1084B986D7047064B586E7047054BD1
:10045000586F7047C0EA2101006CDC020090D003A5
:10046000007E56030080E00F0048E80180D543027B
:1004700000093D00405DC6000024F400C0CF6A00C2
:1004800040420F0080841E0038B5124B0546D3F859
:1004900020310C4603F00703013B032B17D8DFE89C
:1004A00003F00E120A02FFF71FFF022305B12860B6
:1004B00004B1237038BDFFF71BFF0523F6E7FFF7F4
:1004C00005FF0423F2E7FFF7FBFE0323EEE700231B
:1004D0001846EBE700800040002230B5124B83B095
:1004E0000192D3F88031054603F00303022B0C463A
:1004F00015D0032B0ED0012B06D00DB1019B2B6024
:1005000004B1227003B030BD114601A8FFF7BCFF53
:100510000D22F2E7FFF7E8FE02220190EDE7FFF778
:10052000E7FE05220190E8E70080004038B5104B57
:100530000546D3F840310C4603F00303022B12D0DA
:10054000032B0CD0012B06D00023184605B12860E0
:1005500004B1237038BDFFF70FFF0823F6E7FFF75C
:100560000FFF0923F2E7FFF70FFF0723EEE700BFB6
:100570000080004038B5104B0546D3F860310C467A
:1005800003F00303022B12D0032B0CD0012B06D057
:100590000023184605B1286004B1237038BDFFF769
:1005A000EBFE0823F6E7FFF7EBFE0923F2E7FFF780
:1005B000EBFE0723EEE700BF0080004038B5134B89
:1005C0000546D3F800320C4603F00703013B032B2A
:1005D00018D8DFE803F00F130B02FFF747FE0C23D8
:1005E000800A05B1286004B1237038BDFFF7C8FE4A
:1005F0000923F6E7FFF7C0FE0823F2E7FFF7C4FE82
:100600000723EEE700231846EBE700BF0080004019
:1006100038B5134B0546D3F808320C4603F00703F0
:10062000013B032B18D8DFE803F00F130B02FFF791
:100630001DFE0C23800A05B1286004B1237038BD6B
:10064000FFF79EFE0923F6E7FFF796FE0823F2E781
:10065000FFF79AFE0723EEE700231846EBE700BFFB
:100660000080004038B5104B0546D3F840320C46A8
:1006700003F00303022B12D0032B0CD0012B06D066
:100680000023184605B1286004B1237038BDFFF778
:1006900073FE0823F6E7FFF773FE0923F2E7FFF77F
:1006A00073FE0723EEE700BF0080004038B5104B13
:1006B0000546D3F800310C4603F00303022B12D099
:1006C000032B0CD0012B06D00123002005B128609C
:1006D00004B1237038BDFFF7F3FD0323F6E7FFF7FE
:1006E00001FE0623F2E7FFF74FFE0723EEE700BF08
:1006F0000080004041F67132144B10B4D969144C9B
:10070000DA639A68A04201F4803122F4401216D9CB
:1007100042F480120F4C9A60D4F818320E4A23F03B
:100720000203904288BF43F002030A4AC2F818321B
:1007300011B10022054BDA635DF8044B70470548A0
:100740009A60D0F8183223F00203EEE7000003406D
:10075000C017530200C0074080F0FA02002300B522
:1007600083B00193242873D8DFE800F06F1A1F2AA2
:10077000343F454B51575D6313691A4B7272511ADE
:100780002A342A3F1A4B2A69454545452A2A2A57C1
:100790005D00334BD3F8803003F00303022B59D1B3
:1007A000FFF764FD03B05DF804FBFFF743FD2C4B3E
:1007B000D3F89030C3F304630133B0FBF3F0F1E7F7
:1007C000FFF754FD264B1B6FC3F380230133B0FBAF
:1007D000F3F0E7E7FFF74AFD214B1B6FC3F38023DC
:1007E0000133B0FBF3F04008DCE701A80021FFF77C
:1007F00073FE0198D6E701A80021FFF745FE019896
:10080000D0E701A80021FFF791FE0198CAE701A8EF
:100810000021FFF7AFFE0198C4E701A80021FFF710
:10082000CDFE0198BEE701A80021FFF7F1FE019877
:10083000B8E701A80021FFF739FF0198B2E701A846
:100840000021FFF70FFF0198ACE7FFF7F3FCA9E7E2
:100850000020A7E7032BFBD1FFF74AFDA2E700BF6B
:100860000080004008B50120FFF778FF064B074ADB
:1008700098428CBF4FF480600020136F23F4806394
:100880001843106708BD00BF80F0FA0200800040E6
:10089000002300B583B08DF8073024286ED8DFE838
:1008A00000F01D6D6D6D6D28303840485058601354
:1008B0006D386D6D406D6D6D6D286D386D13303018
:1008C00030306D6D6D48500000200DF10701FFF7CD
:1008D000C9FE9DF8070003B05DF804FB2E4B1B6FAB
:1008E00003F00703013B032B48D8DFE803F04F4D2B
:1008F0004B4900200DF10701FFF7EEFD9DF80700C1
:10090000E9E700200DF10701FFF7BEFD9DF80700A4
:10091000E1E700200DF10701FFF708FE9DF8070051
:10092000D9E700200DF10701FFF724FE9DF807002D
:10093000D1E700200DF10701FFF740FE9DF8070009
:10094000C9E700200DF10701FFF762FE9DF80700DF
:10095000C1E700200DF10701FFF7A8FE9DF8070091
:10096000B9E70D4BD3F8803003F00303022B0FD00F
:10097000032B03D1FFF7BCFC0520ACE70020AAE75E
:100980000620A8E70320A6E70420A4E70220A2E7A8
:10099000FFF76CFC0B209EE700800040242814D851
:1009A000DFE800F0261313131330425466788A9C54
:1009B000AE14135413136613131313301354131478
:1009C00042424242131313788A0070470739C9B272
:1009D00002298CBF00216C4B6C4A98BF53F8211040
:1009E000D2F8403223F003030B43C2F84032704781
:1009F0008B1E70B5042B00F2C280DFE803F0BDB39C
:100A0000B0C090000239C9B20B298CBF0021604BE5
:100A10005E4A98BF53F82110D2F8803123F00303C7
:100A20000B43C2F8803170470239C9B203298CBF29
:100A30000021584B554A98BF53F82110D2F8203165
:100A400023F007030B43C2F8203170470739C9B2BE
:100A500002298CBF0021504B4C4A98BF53F82110FB
:100A6000D2F8403123F003030B43C2F84031704702
:100A70000739C9B202298CBF0021484B434A98BFAD
:100A800053F82110D2F8603123F003030B43C2F86E
:100A9000603170470739C9B205298CBF0021404B2E
:100AA0003A4A98BF53F82110D2F8003223F00703D6
:100AB0000B43C2F8003270470739C9B205298CBF11
:100AC0000021384B314A98BF53F82110D2F8083230
:100AD00023F007030B43C2F8083270470339C9B249
:100AE00004298CBF0021304B284A98BF53F82110AD
:100AF000D2F8003123F003030B43C2F800317047F2
:100B000005293FD00B290CBF022100211F4AD2F832
:100B1000803023F003030B43C2F880307047002677
:100B200004250C46FFF7C8FBFFF7E4FD174A136FD7
:100B300043F480631367136F23F007032B4313679A
:100B4000FFF794FBFFF7D6FDFFF78CFE36B9032CB9
:100B500004D142F228030121144AD15070BD00266D
:100B60000225DEE741F228020120104B03259E6A90
:100B70009850C6F34006D4E700260125D1E70026A9
:100B80003546CEE70321C1E7101F0000008000407A
:100B9000D01E0000001F0000101F0000101F0000EA
:100BA0001C1F00001C1F0000341F000000C000407C
:100BB00038B50546FFF7EEFB42F204011D4B044633
:100BC000585801281AD02846FFF786FB0020FFF767
:100BD0005FFE042823D0184A24F04074954213D0B5
:100BE000164A954207D0164A00209460FFF750FE3F
:100BF00004280CD038BD44F08074F4E71A465850ED
:100C000093699B07FCD1DEE744F00074EBE7FFF744
:100C10002DFBFFF76FFDBDE83840FFF723BEFFF760
:100C20004BFBFFF767FD074A136F43F480631367BD
:100C3000D1E700BF00C0014040420F0080841E0089
:100C4000000001400080004000B962B6704700BF5C
:100C5000EFF3108072B67047FFF7F6BFF0B4A2BB97
:100C6000440025182D0107294FF00F0C05F1804590
:100C70001BD805F570356E688F000CFA07FC26EA64
:100C80000C0602FA07F73E436E6062B9012202FACF
:100C900001F15BBB42F210030444240104F18044DF
:100CA00004F57034E150F0BC704701F1804605F561
:100CB0007035083EEF68B6000CFA06FC27EA0C0710
:100CC00002FA06F63E43EE60DFE701268E4053B996
:100CD00042F21007440025182D0105F1804505F565
:100CE0007035EE51BDE741F21007F3E741F2100312
:100CF000D2E700BFF0B4012542F204044B7805515D
:100D0000002B0CBF002508258C780B78240103F0FC
:100D1000070304F030041C43CB782C430BB144F49C
:100D200080744D790B7904671B022C03174FC56A39
:100D300004F4805403F4E0638E79234305EA070446
:100D400023430EB143F4803341F204050126C3620C
:100D500044684651937816881B04D57803F4803391
:100D600004F0010433430DB143F40033C0F898306C
:100D70001CB942F204030122C25041F204040123CF
:100D8000CA79035102B1C360F0BC7047001701007B
:100D900070B441F204010124264B274A4450C36039
:100DA00043691340FCD18361C0F89830436913F460
:100DB000401FFBD14369DA0508D5436F4369DA0563
:100DC000FBD443699B0504D5D0F8843043699B0567
:100DD000FAD40022302342F2040401251749C66FD9
:100DE0008842D0F88C60055182600261C262026262
:100DF0000367C0F8803008D070BC42F2240142F290
:100E000028020F4B43508350704742F2600513464F
:100E1000144601460B4E85640665426585650A4D9C
:100E20002E656A6503F128020133102B41F8224038
:100E3000F8D1E1E712000200520001000040004A30
:100E40008F330F8000C002801040004A10B50A4C5A
:100E50008C4228BF0C4652B1631E9818B0FBF4F0C8
:100E600020B10138032828BF0320C0B210BD1720CD
:100E7000FFF774FC0246EFE7005A620238B51048EB
:100E8000104C9DF81050002B18BF04468C4228BF10
:100E90000C467AB1681CB2FBF0F0621E1044B0FB45
:100EA000F4F030B140F2FF330138984228BF1846C1
:100EB000C0B238BD1720FFF751FC0246EAE700BF79
:100EC000404B4C00809698002DE9F04F2DED048B9F
:100ED000814683B0172014460D46FFF73FFCB04B08
:100EE000B04A0344A2FB03231B0E04D0013B032B97
:100EF00028BF0323DBB242F20402012195F805A0CA
:100F000049F8021028799A4538BF9A4680B3000400
:100F100000F4FE00EA784FEA0A73120102F0300290
:100F200003F0E04329781343184309B140F002006D
:100F30006B780BB140F00400AB780BB140F00800C7
:100F40002A896B89E98843EA0243974AC9F808006D
:100F50009145C9F81010C9F820301BD041F20403A4
:100F6000012249F8032003B0BDEC048BBDE8F08FEB
:100F70001720FFF7F3FB0028CCD000F574208B4B33
:100F800000F23F20A3FB0030800C01387F2828BFEF
:100F90007F20BCE700264F469FED859ADFED858ACE
:100FA0009FED858A07E0731D07EB031358600C342F
:100FB000002ED3D101262578804A814994F80580F6
:100FC000002D18BF11462B460022CDF800A0384650
:100FD000FFF754FF310107EB010CDCF8483094F8BF
:100FE00001E0DFF8F0B1A27803EA0B0B4FEA8E03C1
:100FF00003F01C0E130303F4E04205F0030343EA7D
:101000000B0343EA0E0394F803E0134322794FEAFB
:101010000E4E0EF4E02E120743EA0E0302F0405289
:101020001343404538BF4046CCF84830002DBAD174
:10103000DCF84830C3F302335A1E012A40F28A809A
:10104000032B00F09980042B5E4BD3F88421D3F856
:101050008C3100F09D801B1403EB430307EE903AA4
:10106000B8EEE77A120C15044FF001053944896C8B
:1010700022F4C043C1F3820101EB050C05FA0CF523
:1010800007EE905A4FEA834348BF43F00043B8EE5F
:10109000E76A002965D04B4DF6EE005AD5F890115D
:1010A00066EE255A09B207EE901AF8EEE77A77EE67
:1010B000C77AD5F88811C7EEA56A09B207EE901A6B
:1010C000F8EEE77A77EEA67A94ED027AB8EE477AF0
:1010D000B7EE045AC7EE095AC5EE256A88EE867A3D
:1010E00066EEA77AF1EE006A27EE087A67EEA67A36
:1010F000B3F1004F77EE277A0BD0DFED336A07EEBE
:10110000102A77EEA67ABAEEE87A67EE277A77EEBB
:10111000E67AF5EEC07AF1EE10FACCBFBEEE007AB8
:10112000B6EE007A77EE677AFDEEE77A17EE902A50
:1011300026498A4205DD43EA0102731D19017A50EE
:1011400032E712F5003FAABFC2F3110243F40032A6
:101150001A43F2E71B4B9FED1E7AD3F8802192B21F
:1011600081E71849D1F88C1109B207EE901AF8EE10
:10117000E77A77EE877AA7E7124BD3F88021D3F886
:101180008C31120C1B1407EE903AB8EEE77A6AE73E
:101190001B145B0007EE903A92B2B8EEE77A62E772
:1011A000FF5962026BCA5F6B0040004A83DE1B433B
:1011B00000007A440000804300002044404B4C0073
:1011C000809698000080E00F00000049FFFF0100BA
:1011D00000000000E08FF8CF0B6F30B413F007036E
:1011E0004A6F08D0032B02D122F0FF04D5B204606D
:1011F000057130BC704722F07F44130248BF44F0B1
:101200007F44150E0460057130BC70472DE9F04332
:101210004FF0010800254FF400144FF0FF0E4FF07F
:10122000004C42F250064FF0FF37037890F80190DF
:101230008178C27818060C4B41EA0941C3F8048052
:101240001201986099610949D2B2C3F828E09D6300
:101250001D64C3F854C09F51C1F8804181F8152323
:101260000C60BDE8F08300BF0000044000E100E036
:10127000F8B50C464FF0010E42F25007CB7A897A4E
:10128000267B1B05256843EA01431E4943EA465372
:101290001D4E94F80DC041F8205000EB4001C0B243
:1012A00006EB011122F003020EFA00F5C1F860C04E
:1012B000CB650A67F551FFF7CBFC736D227A2B43A0
:1012C000736512B1336C2B433364637A1BB10E4ADE
:1012D000936B2B43936342F2180141F21806237972
:1012E000A27942EA0342084B5A506779E2790749EA
:1012F00042EA07429A510D609D64BDE8F840FFF74D
:10130000ABBC00BF00400440000004403420044057
:10131000054B5B69C3F3851103F03F021B0B817022
:1013200042700370704700BF00C0074010B50A4B01
:101330001B78012B05D000F09FF90122074B1A60A2
:1013400010BD42F250001021054A064C2350D160D6
:101350000122024B1A6010BDB810002040D003409B
:101360000040004A0000044000B583B001A8FFF728
:10137000CFFF244B9B6DDB0315D42349234A0B6815
:1013800023F4FF0323F4FE4343F4BC1343F4A063AC
:101390000B60136823F4704343F4404313601368F5
:1013A00043F4E06313609DF80530012B17D0002350
:1013B000174C1946D4F88000042240F00300C4F80A
:1013C00080000120FFF74AFC00F032F80022114BA8
:1013D0001A7000F0EDF801220F4BDA60FEE79DF87D
:1013E0000430002BE3D14FF000550C4C0C480D4954
:1013F0000D4A0E4B2D6824680068096812681B6846
:10140000D5E700BF00C0004034C0004030C00040FD
:1014100000800040B81000200040004A004000203A
:101420000080002000C000200000012000400120BA
:101430002DE9F043002401274FF003088FB0314E0F
:1014400008AD0FCE0FC596E803002F4E85E80300C8
:101450003046039405948DF809408DF80A408DF8C4
:101460000B40CDE9064404948DF80E808DF8087089
:10147000FFF78EFC2548FFF79BFB04210620FFF7B2
:101480008DFA0D210520FFF789FA0223DFF88490F9
:101490002246494630468DF81730FFF7D7FC4FF407
:1014A0007A6C054649460090234622463046ADF800
:1014B0001AC08DF823808DF81950FFF7DFFCA423A4
:1014C0008DF8250005A9304608AA8DF809308DF859
:1014D00010708DF80E408DF80F708DF80870FFF7C2
:1014E000F3FC02AA03A93046FFF704FC4FF4803353
:1014F000074AF360D2F828333B43C2F828330FB0D1
:10150000BDE8F083481F00000040004A00B4C40456
:1015100000C003408096980030B583B06D4601222C
:101520001D4B28461A601D49FFF756FE95E803003B
:101530001B4A1C4C84E80300118825684B1C9BB295
:10154000B3F5806F138008BF0023174808BF1380CE
:1015500020F81150206800F0E1F90BA3D3E9002333
:1015600000F056FA0AA3D3E9002300F07BFB012424
:1015700042F224030D4D094AC5E90001D45003B0DD
:1015800030BD00BFAFF300806666666666660A40DF
:101590000000000000FEAF4040F003400040004A61
:1015A0009400002098000020DC180020A0000020FB
:1015B0002DE9F04F0024284B284A9E1C87B006F2E4
:1015C000FE7123F8024F8B4222F8024FF9D1244BCF
:1015D00006A89B694FF0000740F8143DFFF716FE80
:1015E0004FF0000040F2FF3E4FF0010C3D46024636
:1015F0004FF030094FF0130B6FF00C0A194B06A98E
:1016000041F8103D184B6EF30E156CF383020394F2
:101610001D82DA74154D164A6CF383006EF30E17B3
:1016200083F812901F809E60D870C3F80CB0C3F886
:101630001CA09A6183F802901A465D605D610020EB
:10164000CDE90444FFF714FE0A4AD36B43F00103CB
:10165000D36307B0BDE8F08FDA180020DA1000205D
:10166000481F000001000C00BC1000207440004A1C
:10167000DC1000200000044042F25001054B1A6DBE
:10168000002A5A5004DBDA6B42F00102DA63704739
:10169000FEE700BF0000044081F0004102E000BF0F
:1016A00083F0004330B54FEA41044FEA430594EA22
:1016B000050F08BF90EA020F1FBF54EA000C55EA5D
:1016C000020C7FEA645C7FEA655C00F0E2804FEA2E
:1016D0005454D4EB5555B8BF6D420CDD2C4480EA10
:1016E000020281EA030382EA000083EA010180EA40
:1016F000020281EA0303362D88BF30BD11F0004F8E
:101700004FEA01314FF4801C4CEA113102D04042C3
:1017100061EB410113F0004F4FEA03334CEA1333FE
:1017200002D0524263EB430394EA050F00F0A78016
:10173000A4F10104D5F1200E0DDB02FA0EFC22FA11
:1017400005F2801841F1000103FA0EF2801843FA05
:1017500005F359410EE0A5F120050EF1200E012AF6
:1017600003FA0EFC28BF4CF0020C43FA05F3C01834
:1017700051EBE37101F0004507D54FF0000EDCF1AD
:10178000000C7EEB00006EEB0101B1F5801F1BD356
:10179000B1F5001F0CD349085FEA30004FEA3C0C5A
:1017A00004F101044FEA445212F5800F80F09A8050
:1017B000BCF1004F08BF5FEA500C50F1000041EB54
:1017C000045141EA050130BD5FEA4C0C404141EB58
:1017D000010111F4801FA4F10104E9D191F0000F7F
:1017E00004BF01460020B1FA81F308BF2033A3F102
:1017F0000B03B3F120020CDA0C3208DD02F1140CF9
:10180000C2F10C0201FA0CF021FA02F10CE002F133
:101810001402D8BFC2F1200C01FA02F120FA0CFC2C
:10182000DCBF41EA0C019040E41AA2BF01EB045175
:10183000294330BD6FEA04041F3C1CDA0C340EDC73
:1018400004F11404C4F1200220FA04F001FA02F3B6
:1018500040EA030021FA04F345EA030130BDC4F174
:101860000C04C4F1200220FA02F001FA04F340EA69
:101870000300294630BD21FA04F0294630BD94F01A
:10188000000F83F4801306BF81F480110134013D01
:101890004EE77FEA645C18BF7FEA655C29D094EA72
:1018A000050F08BF90EA020F05D054EA000C04BFF0
:1018B0001946104630BD91EA030F1EBF00210020DB
:1018C00030BD5FEA545C05D14000494128BF41F07A
:1018D000004130BD14F580043CBF01F5801130BDDE
:1018E00001F0004545F0FE4141F470014FF0000069
:1018F00030BD7FEA645C1ABF194610467FEA655C1A
:101900001CBF0B46024650EA013406BF52EA0335BB
:1019100091EA030F41F4002130BD00BF90F0000FA9
:1019200004BF0021704730B54FF4806404F13204E5
:101930004FF000054FF0000150E700BF90F0000F9E
:1019400004BF0021704730B54FF4806404F13204C5
:1019500010F0004548BF40424FF000013EE700BF95
:1019600042004FEAE2014FEA31014FEA02701FBF25
:1019700012F07F4393F07F4F81F06051704732F057
:101980007F4208BF704793F07F4F04BF41F40021AE
:10199000704730B54FF4607401F0004521F000410C
:1019A0001CE700BF50EA010208BF704730B54FF096
:1019B00000050AE050EA010208BF704730B511F097
:1019C000004502D5404261EB41014FF4806404F1CF
:1019D00032045FEA915C3FF4D8AE4FF003025FEA55
:1019E000DC0C18BF03325FEADC0C18BF033202EBD9
:1019F000DC02C2F1200300FA03FC20FA02F001FA33
:101A000003FE40EA0E0021FA02F11444BDE600BFD5
:101A100070B54FF0FF0C4CF4E06C1CEA11541DBF84
:101A20001CEA135594EA0C0F95EA0C0F00F0DEF84F
:101A30002C4481EA030621EA4C5123EA4C5350EA34
:101A4000013518BF52EA033541F4801143F4801385
:101A500038D0A0FB02CE4FF00005E1FB02E506F016
:101A60000042E0FB03E54FF00006E1FB03569CF06B
:101A7000000F18BF4EF0010EA4F1FF04B6F5007F71
:101A800064F5407404D25FEA4E0E6D4146EB0606E3
:101A900042EAC62141EA55514FEAC52040EA5E506C
:101AA0004FEACE2EB4F1FD0C88BFBCF5E06F1ED816
:101AB000BEF1004F08BF5FEA500E50F1000041EB4D
:101AC000045170BD06F0004646EA010140EA0200FA
:101AD00081EA0301B4EB5C04C2BFD4EB0C0541EA1C
:101AE000045170BD41F480114FF0000E013C00F331
:101AF000AB8014F1360FDEBF002001F0004170BD55
:101B0000C4F10004203C35DA0C341BDC04F114046D
:101B1000C4F1200500FA05F320FA04F001FA05F2F9
:101B200040EA020001F0004221F0004110EBD370C6
:101B300021FA04F642EB06015EEA430E08BF20EAF2
:101B4000D37070BDC4F10C04C4F1200500FA04F395
:101B500020FA05F001FA04F240EA020001F0004127
:101B600010EBD37041F100015EEA430E08BF20EA9A
:101B7000D37070BDC4F1200500FA05F24EEA020EE2
:101B800020FA04F301FA05F243EA020321FA04F011
:101B900001F0004121FA04F220EA020000EBD370C8
:101BA0005EEA430E08BF20EAD37070BD94F0000FC8
:101BB0000FD101F00046400041EB010111F4801FFC
:101BC00008BF013CF7D041EA060195F0000F18BFAD
:101BD000704703F00046520043EB030313F4801FE9
:101BE00008BF013DF7D043EA0603704794EA0C0FA3
:101BF0000CEA135518BF95EA0C0F0CD050EA4106B9
:101C000018BF52EA4306D1D181EA030101F0004135
:101C10004FF0000070BD50EA410606BF104619465D
:101C200052EA430619D094EA0C0F02D150EA013669
:101C300013D195EA0C0F05D152EA03361CBF1046AA
:101C400019460AD181EA030101F0004141F0FE4149
:101C500041F470014FF0000070BD41F0FE4141F4CD
:101C6000780170BD70B54FF0FF0C4CF4E06C1CEACD
:101C700011541DBF1CEA135594EA0C0F95EA0C0F82
:101C800000F0A7F8A4EB050481EA030E52EA03353D
:101C90004FEA013100F088804FEA03334FF080555E
:101CA00045EA131343EA12634FEA022245EA11158B
:101CB00045EA10654FEA00260EF000419D4208BF3C
:101CC000964244F1FD0404F5407402D25B084FEAE9
:101CD0003202B61A65EB03055B084FEA32024FF495
:101CE00080104FF4002CB6EB020E75EB030E22BFF2
:101CF000B61A754640EA0C005B084FEA3202B6EBB2
:101D0000020E75EB030E22BFB61A754640EA5C0060
:101D10005B084FEA3202B6EB020E75EB030E22BFF0
:101D2000B61A754640EA9C005B084FEA3202B6EBF1
:101D3000020E75EB030E22BFB61A754640EADC00B0
:101D400055EA060E18D04FEA051545EA16754FEA12
:101D500006164FEAC30343EA52734FEAC2025FEA30
:101D60001C1CC0D111F4801F0BD141EA00014FF0BF
:101D700000004FF0004CB6E711F4801F04BF014390
:101D80000020B4F1FD0C88BFBCF5E06F3FF6AFAEAC
:101D9000B5EB030C04BFB6EB020C5FEA500C50F13C
:101DA000000041EB045170BD0EF0004E4EEA1131BF
:101DB00014EB5C04C2BFD4EB0C0541EA045170BDC6
:101DC00041F480114FF0000E013C90E645EA060E0A
:101DD0008DE60CEA135594EA0C0F08BF95EA0C0F38
:101DE0003FF43BAF94EA0C0F0AD150EA01347FF480
:101DF00034AF95EA0C0F7FF425AF104619462CE757
:101E000095EA0C0F06D152EA03353FF4FDAE1046B9
:101E1000194622E750EA410618BF52EA43067FF40A
:101E2000C5AE50EA41047FF40DAF52EA43057FF49A
:101E3000EBAE12E708B5074B044613B1002100E0F2
:101E400000BF054B1868836A03B19847204600F02D
:101E500031F800BF00000000641F000070B50D4E97
:101E600000250D4CA41BA410A54209D10B4E002542
:101E70000B4C00F021F8A41BA410A54205D170BDA5
:101E800056F8253001359847EEE756F825300135EC
:101E90009847F2E7700000207000002070000020DA
:101EA0007400002002440346934200D1704703F8B7
:101EB000011BF9E7FEE700BFF8B500BFF8BC08BC9E
:101EC0009E467047F8B500BFF8BC08BC9E467047F8
:101ED00003000000000000000000000002000000FD
:101EE00000000000000000000000000000000000F2
:101EF00000000000000000000000000001000000E1
:101F000004000000020000000100000003000000C7
:101F100002000000010000000300000002000000B9
:101F200001000000030000000000000000000000AD
:101F3000040000000100000000000000000000009C
:101F4000030000000200000000000200000000008A
:101F5000BA0400000000020000000000BA04000003
:0C1F60001E000003100000200000000024
:081F6C0008E2FF7F0100000004
:101F7400C0EA2101C0EA210100F04902008000000A
:101F8400000000000000000000000000000000004D
:101F9400000000000000000000000000000000003D
:101FA400000000000000000000000000000000002D
:101FB400000000000000000000000000000000001D
:101FC400000000000000000000000000000000000D
:101FD40000000000000000000000000000000000FD
:081FE400590100003501000065
:04000003000001E90F
:00000001FF
